{
  "_format": "hh-sol-artifact-1",
  "contractName": "AnswerToEarn",
  "sourceName": "contracts/AnswerToEarn.sol",
  "abi": [
    {
      "inputs": [
        {
          "internalType": "uint256",
          "name": "_serviceFee",
          "type": "uint256"
        }
      ],
      "stateMutability": "nonpayable",
      "type": "constructor"
    },
    {
      "anonymous": false,
      "inputs": [
        {
          "indexed": false,
          "internalType": "uint256",
          "name": "id",
          "type": "uint256"
        },
        {
          "indexed": false,
          "internalType": "string",
          "name": "actionType",
          "type": "string"
        },
        {
          "indexed": true,
          "internalType": "address",
          "name": "executor",
          "type": "address"
        },
        {
          "indexed": false,
          "internalType": "uint256",
          "name": "timestamp",
          "type": "uint256"
        }
      ],
      "name": "Action",
      "type": "event"
    },
    {
      "anonymous": false,
      "inputs": [
        {
          "indexed": true,
          "internalType": "address",
          "name": "previousOwner",
          "type": "address"
        },
        {
          "indexed": true,
          "internalType": "address",
          "name": "newOwner",
          "type": "address"
        }
      ],
      "name": "OwnershipTransferred",
      "type": "event"
    },
    {
      "inputs": [
        {
          "internalType": "uint256",
          "name": "qid",
          "type": "uint256"
        },
        {
          "internalType": "string",
          "name": "comment",
          "type": "string"
        }
      ],
      "name": "addAnswer",
      "outputs": [],
      "stateMutability": "nonpayable",
      "type": "function"
    },
    {
      "inputs": [
        {
          "internalType": "uint256",
          "name": "_serviceFee",
          "type": "uint256"
        }
      ],
      "name": "changeFee",
      "outputs": [],
      "stateMutability": "nonpayable",
      "type": "function"
    },
    {
      "inputs": [
        {
          "internalType": "string",
          "name": "title",
          "type": "string"
        },
        {
          "internalType": "string",
          "name": "description",
          "type": "string"
        },
        {
          "internalType": "string",
          "name": "tags",
          "type": "string"
        }
      ],
      "name": "createQuestion",
      "outputs": [],
      "stateMutability": "payable",
      "type": "function"
    },
    {
      "inputs": [
        {
          "internalType": "uint256",
          "name": "qid",
          "type": "uint256"
        }
      ],
      "name": "deleteQuestion",
      "outputs": [],
      "stateMutability": "nonpayable",
      "type": "function"
    },
    {
      "inputs": [
        {
          "internalType": "uint256",
          "name": "qid",
          "type": "uint256"
        },
        {
          "internalType": "uint256",
          "name": "id",
          "type": "uint256"
        }
      ],
      "name": "getAnswer",
      "outputs": [
        {
          "components": [
            {
              "internalType": "uint256",
              "name": "id",
              "type": "uint256"
            },
            {
              "internalType": "uint256",
              "name": "qid",
              "type": "uint256"
            },
            {
              "internalType": "string",
              "name": "comment",
              "type": "string"
            },
            {
              "internalType": "address",
              "name": "owner",
              "type": "address"
            },
            {
              "internalType": "bool",
              "name": "deleted",
              "type": "bool"
            },
            {
              "internalType": "uint256",
              "name": "created",
              "type": "uint256"
            },
            {
              "internalType": "uint256",
              "name": "updated",
              "type": "uint256"
            }
          ],
          "internalType": "struct AnswerToEarn.AnswerStruct",
          "name": "",
          "type": "tuple"
        }
      ],
      "stateMutability": "view",
      "type": "function"
    },
    {
      "inputs": [
        {
          "internalType": "uint256",
          "name": "qid",
          "type": "uint256"
        }
      ],
      "name": "getAnswers",
      "outputs": [
        {
          "components": [
            {
              "internalType": "uint256",
              "name": "id",
              "type": "uint256"
            },
            {
              "internalType": "uint256",
              "name": "qid",
              "type": "uint256"
            },
            {
              "internalType": "string",
              "name": "comment",
              "type": "string"
            },
            {
              "internalType": "address",
              "name": "owner",
              "type": "address"
            },
            {
              "internalType": "bool",
              "name": "deleted",
              "type": "bool"
            },
            {
              "internalType": "uint256",
              "name": "created",
              "type": "uint256"
            },
            {
              "internalType": "uint256",
              "name": "updated",
              "type": "uint256"
            }
          ],
          "internalType": "struct AnswerToEarn.AnswerStruct[]",
          "name": "Answers",
          "type": "tuple[]"
        }
      ],
      "stateMutability": "view",
      "type": "function"
    },
    {
      "inputs": [
        {
          "internalType": "uint256",
          "name": "qid",
          "type": "uint256"
        }
      ],
      "name": "getQuestion",
      "outputs": [
        {
          "components": [
            {
              "internalType": "uint256",
              "name": "id",
              "type": "uint256"
            },
            {
              "internalType": "string",
              "name": "title",
              "type": "string"
            },
            {
              "internalType": "string",
              "name": "description",
              "type": "string"
            },
            {
              "internalType": "address",
              "name": "owner",
              "type": "address"
            },
            {
              "internalType": "address",
              "name": "winner",
              "type": "address"
            },
            {
              "internalType": "bool",
              "name": "paidout",
              "type": "bool"
            },
            {
              "internalType": "bool",
              "name": "deleted",
              "type": "bool"
            },
            {
              "internalType": "uint256",
              "name": "updated",
              "type": "uint256"
            },
            {
              "internalType": "uint256",
              "name": "created",
              "type": "uint256"
            },
            {
              "internalType": "uint256",
              "name": "answers",
              "type": "uint256"
            },
            {
              "internalType": "string",
              "name": "tags",
              "type": "string"
            },
            {
              "internalType": "uint256",
              "name": "prize",
              "type": "uint256"
            }
          ],
          "internalType": "struct AnswerToEarn.QuestionStruct",
          "name": "",
          "type": "tuple"
        }
      ],
      "stateMutability": "view",
      "type": "function"
    },
    {
      "inputs": [],
      "name": "getQuestions",
      "outputs": [
        {
          "components": [
            {
              "internalType": "uint256",
              "name": "id",
              "type": "uint256"
            },
            {
              "internalType": "string",
              "name": "title",
              "type": "string"
            },
            {
              "internalType": "string",
              "name": "description",
              "type": "string"
            },
            {
              "internalType": "address",
              "name": "owner",
              "type": "address"
            },
            {
              "internalType": "address",
              "name": "winner",
              "type": "address"
            },
            {
              "internalType": "bool",
              "name": "paidout",
              "type": "bool"
            },
            {
              "internalType": "bool",
              "name": "deleted",
              "type": "bool"
            },
            {
              "internalType": "uint256",
              "name": "updated",
              "type": "uint256"
            },
            {
              "internalType": "uint256",
              "name": "created",
              "type": "uint256"
            },
            {
              "internalType": "uint256",
              "name": "answers",
              "type": "uint256"
            },
            {
              "internalType": "string",
              "name": "tags",
              "type": "string"
            },
            {
              "internalType": "uint256",
              "name": "prize",
              "type": "uint256"
            }
          ],
          "internalType": "struct AnswerToEarn.QuestionStruct[]",
          "name": "Questions",
          "type": "tuple[]"
        }
      ],
      "stateMutability": "view",
      "type": "function"
    },
    {
      "inputs": [],
      "name": "owner",
      "outputs": [
        {
          "internalType": "address",
          "name": "",
          "type": "address"
        }
      ],
      "stateMutability": "view",
      "type": "function"
    },
    {
      "inputs": [
        {
          "internalType": "uint256",
          "name": "qid",
          "type": "uint256"
        },
        {
          "internalType": "uint256",
          "name": "id",
          "type": "uint256"
        }
      ],
      "name": "payWinner",
      "outputs": [],
      "stateMutability": "nonpayable",
      "type": "function"
    },
    {
      "inputs": [],
      "name": "renounceOwnership",
      "outputs": [],
      "stateMutability": "nonpayable",
      "type": "function"
    },
    {
      "inputs": [],
      "name": "serviceFee",
      "outputs": [
        {
          "internalType": "uint256",
          "name": "",
          "type": "uint256"
        }
      ],
      "stateMutability": "view",
      "type": "function"
    },
    {
      "inputs": [
        {
          "internalType": "address",
          "name": "newOwner",
          "type": "address"
        }
      ],
      "name": "transferOwnership",
      "outputs": [],
      "stateMutability": "nonpayable",
      "type": "function"
    },
    {
      "inputs": [
        {
          "internalType": "uint256",
          "name": "qid",
          "type": "uint256"
        },
        {
          "internalType": "string",
          "name": "title",
          "type": "string"
        },
        {
          "internalType": "string",
          "name": "description",
          "type": "string"
        },
        {
          "internalType": "string",
          "name": "tags",
          "type": "string"
        }
      ],
      "name": "updateQuestion",
      "outputs": [],
      "stateMutability": "nonpayable",
      "type": "function"
    }
  ],
  "bytecode": "0x60806040523480156200001157600080fd5b506040516200287b3803806200287b83398101604081905262000034916200009f565b600160005562000044336200004d565b600455620000b9565b600180546001600160a01b038381166001600160a01b0319831681179093556040519116919082907f8be0079c531659141344cd1fd0a4f28419497f9722a3daafe3b4186f6b6457e090600090a35050565b600060208284031215620000b257600080fd5b5051919050565b6127b280620000c96000396000f3fe6080604052600436106100dd5760003560e01c80638da5cb5b1161007f578063a22c1bc911610059578063a22c1bc91461023d578063db88176f1461026a578063e93fa19c14610297578063f2fde38b146102aa57600080fd5b80638da5cb5b146101d357806397221ab7146101fb5780639a3c4c791461021d57600080fd5b8063715018a6116100bb578063715018a61461015a5780637491995a1461016f57806381e1dc941461018f5780638abdf5aa146101af57600080fd5b8063020c9945146100e25780631e59e02a146101045780636a1db1bf1461013a575b600080fd5b3480156100ee57600080fd5b506101026100fd366004612060565b6102ca565b005b34801561011057600080fd5b5061012461011f366004612082565b61057a565b6040516101319190612148565b60405180910390f35b34801561014657600080fd5b50610102610155366004612082565b6105cc565b34801561016657600080fd5b50610102610636565b34801561017b57600080fd5b5061010261018a36600461224d565b61064a565b34801561019b57600080fd5b506101026101aa366004612294565b61087a565b3480156101bb57600080fd5b506101c560045481565b604051908152602001610131565b3480156101df57600080fd5b506001546040516001600160a01b039091168152602001610131565b34801561020757600080fd5b50610210610b1a565b6040516101319190612411565b34801561022957600080fd5b50610102610238366004612082565b610eac565b34801561024957600080fd5b5061025d610258366004612060565b61106e565b6040516101319190612466565b34801561027657600080fd5b5061028a610285366004612082565b61118d565b6040516101319190612480565b6101026102a5366004612493565b6113ec565b3480156102b657600080fd5b506101026102c536600461251b565b6116d8565b6102d2611751565b60008281526005602052604090205460ff166103095760405162461bcd60e51b815260040161030090612544565b60405180910390fd5b600082815260076020908152604080832084845290915290205481146103645760405162461bcd60e51b815260206004820152601060248201526f105b9cddd95c881b9bdd08199bdd5b9960821b6044820152606401610300565b600082815260066020526040902060040154600160a01b900460ff16156103cd5760405162461bcd60e51b815260206004820152601960248201527f5175657374696f6e20616c72656164792070616964206f7574000000000000006044820152606401610300565b6000828152600660205260409020600301546001600160a01b03163314806103ff57506001546001600160a01b031633145b6104415760405162461bcd60e51b8152602060048201526013602482015272556e617574686f72697a656420656e7469747960681b6044820152606401610300565b6000828152600660205260408120600901546004549091906064906104669084612586565b610470919061259d565b6000858152600760209081526040808320878452825280832060030154888452600690925290912060040180546001600160a81b0319166001600160a01b03909216918217600160a01b1790559091506104c86117aa565b60008681526007602090815260408083208884529091529020600501556104f8816104f384866125bf565b6117c9565b61051361050d6001546001600160a01b031690565b836117c9565b3360008051602061275d8339815191528661052c6117aa565b604080519283526060602084018190526010908401526f145d595cdd1a5bdb881c185a591bdd5d60821b608084015282015260a00160405180910390a25050506105766001600055565b5050565b6000818152600660205260409020600301546060906001600160a01b03163314806105af57506001546001600160a01b031633145b156105c3576105bd82611862565b92915050565b6105bd82611ab0565b6105d4611e9e565b6000811180156105e5575060648111155b6106315760405162461bcd60e51b815260206004820152601b60248201527f466565206d757374206265206265747765656e2031202d2031303000000000006044820152606401610300565b600455565b61063e611e9e565b6106486000611ef8565b565b60008281526005602052604090205460ff166106785760405162461bcd60e51b815260040161030090612544565b600082815260066020526040902060040154600160a01b900460ff16156106e15760405162461bcd60e51b815260206004820152601860248201527f5175657374696f6e20616c726561647920706169646f757400000000000000006044820152606401610300565b60008151116107325760405162461bcd60e51b815260206004820152601860248201527f416e73776572206d757374206e6f7420626520656d70747900000000000000006044820152606401610300565b610740600380546001019055565b610748611fa1565b600354815260208101839052604081018290523360608201526107696117aa565b60a0820152600083815260066020526040812060070180549161078b836125d2565b9091555050600083815260076020908152604080832084518452825291829020835181559083015160018201559082015182919060028201906107ce9082612673565b50606082015160038201805460808501511515600160a01b026001600160a81b03199091166001600160a01b039093169290921791909117905560a0820151600482015560c0909101516005909101558051339060008051602061275d8339815191529061083a6117aa565b60408051928352606060208401819052600e908401526d105b9cddd95c8818dc99585d195960921b608084015282015260a00160405180910390a2505050565b60008481526005602052604090205460ff166108a85760405162461bcd60e51b815260040161030090612544565b6000848152600660205260409020600701546001116109095760405162461bcd60e51b815260206004820152601f60248201527f5175657374696f6e20616c7265616479207769746820616e73776572287329006044820152606401610300565b60008351116109545760405162461bcd60e51b81526020600482015260176024820152767469746c65206d757374206e6f7420626520656d70747960481b6044820152606401610300565b60008251116109a55760405162461bcd60e51b815260206004820152601d60248201527f6465736372697074696f6e206d757374206e6f7420626520656d7074790000006044820152606401610300565b60008151116109ef5760405162461bcd60e51b815260206004820152601660248201527574616773206d757374206e6f7420626520656d70747960501b6044820152606401610300565b6000848152600660205260409020600301546001600160a01b03163314610a4f5760405162461bcd60e51b8152602060048201526014602482015273556e617574686f72697a656420656e746974792160601b6044820152606401610300565b6000848152600660205260409020600101610a6a8482612673565b506000848152600660205260409020600801610a868282612673565b506000848152600660205260409020600201610aa28382612673565b50610aab6117aa565b6000858152600660205260409020600501553360008051602061275d83398151915285610ad66117aa565b604080519283526060602084018190526010908401526f145d595cdd1a5bdb881d5c19185d195960821b608084015282015260a0015b60405180910390a250505050565b60606000805b600254811015610b7b5760066000610b39836001612733565b8152602081019190915260400160002060040154600160a81b900460ff16610b695781610b65816125d2565b9250505b80610b73816125d2565b915050610b20565b508067ffffffffffffffff811115610b9557610b956121aa565b604051908082528060200260200182016040528015610bce57816020015b610bbb611fe9565b815260200190600190039081610bb35790505b5091506000805b600254811015610ea65760066000610bee836001612733565b8152602081019190915260400160002060040154600160a81b900460ff16610e945760066000610c1f836001612733565b81526020019081526020016000206040518061018001604052908160008201548152602001600182018054610c53906125eb565b80601f0160208091040260200160405190810160405280929190818152602001828054610c7f906125eb565b8015610ccc5780601f10610ca157610100808354040283529160200191610ccc565b820191906000526020600020905b815481529060010190602001808311610caf57829003601f168201915b50505050508152602001600282018054610ce5906125eb565b80601f0160208091040260200160405190810160405280929190818152602001828054610d11906125eb565b8015610d5e5780601f10610d3357610100808354040283529160200191610d5e565b820191906000526020600020905b815481529060010190602001808311610d4157829003601f168201915b505050918352505060038201546001600160a01b0390811660208301526004830154908116604083015260ff600160a01b8204811615156060840152600160a81b9091041615156080820152600582015460a0820152600682015460c0820152600782015460e082015260088201805461010090920191610dde906125eb565b80601f0160208091040260200160405190810160405280929190818152602001828054610e0a906125eb565b8015610e575780601f10610e2c57610100808354040283529160200191610e57565b820191906000526020600020905b815481529060010190602001808311610e3a57829003601f168201915b50505050508152602001600982015481525050848380610e76906125d2565b945081518110610e8857610e88612746565b60200260200101819052505b80610e9e816125d2565b915050610bd5565b50505090565b60008181526005602052604090205460ff16610eda5760405162461bcd60e51b815260040161030090612544565b600081815260066020526040902060070154600111610f3b5760405162461bcd60e51b815260206004820152601f60248201527f5175657374696f6e20616c7265616479207769746820616e73776572287329006044820152606401610300565b6000818152600660205260409020600301546001600160a01b03163314610f9b5760405162461bcd60e51b8152602060048201526014602482015273556e617574686f72697a656420656e746974792160601b6044820152606401610300565b610fa56002611f4a565b6000818152600660209081526040808320600401805460ff60a81b1916600160a81b17905560059091529020805460ff19169055610fe16117aa565b600082815260066020526040902060058101919091556003810154600990910154611015916001600160a01b0316906117c9565b3360008051602061275d8339815191528261102e6117aa565b604080519283526060602084018190526010908401526f145d595cdd1a5bdb8819195b195d195960821b608084015282015260a00160405180910390a250565b611076611fa1565b6007600084815260200190815260200160002060008381526020019081526020016000206040518060e001604052908160008201548152602001600182015481526020016002820180546110c9906125eb565b80601f01602080910402602001604051908101604052809291908181526020018280546110f5906125eb565b80156111425780601f1061111757610100808354040283529160200191611142565b820191906000526020600020905b81548152906001019060200180831161112557829003601f168201915b505050918352505060038201546001600160a01b0381166020830152600160a01b900460ff161515604082015260048201546060820152600590910154608090910152905092915050565b611195611fe9565b6006600083815260200190815260200160002060405180610180016040529081600082015481526020016001820180546111ce906125eb565b80601f01602080910402602001604051908101604052809291908181526020018280546111fa906125eb565b80156112475780601f1061121c57610100808354040283529160200191611247565b820191906000526020600020905b81548152906001019060200180831161122a57829003601f168201915b50505050508152602001600282018054611260906125eb565b80601f016020809104026020016040519081016040528092919081815260200182805461128c906125eb565b80156112d95780601f106112ae576101008083540402835291602001916112d9565b820191906000526020600020905b8154815290600101906020018083116112bc57829003601f168201915b505050918352505060038201546001600160a01b0390811660208301526004830154908116604083015260ff600160a01b8204811615156060840152600160a81b9091041615156080820152600582015460a0820152600682015460c0820152600782015460e082015260088201805461010090920191611359906125eb565b80601f0160208091040260200160405190810160405280929190818152602001828054611385906125eb565b80156113d25780601f106113a7576101008083540402835291602001916113d2565b820191906000526020600020905b8154815290600101906020018083116113b557829003601f168201915b505050505081526020016009820154815250509050919050565b60008351116114375760405162461bcd60e51b81526020600482015260176024820152767469746c65206d757374206e6f7420626520656d70747960481b6044820152606401610300565b60008251116114885760405162461bcd60e51b815260206004820152601d60248201527f6465736372697074696f6e206d757374206e6f7420626520656d7074790000006044820152606401610300565b60008151116114d25760405162461bcd60e51b815260206004820152601660248201527574616773206d757374206e6f7420626520656d70747960501b6044820152606401610300565b600034116115185760405162461bcd60e51b8152602060048201526013602482015272125b9cdd59999a58da595b9d08185b5bdd5b9d606a1b6044820152606401610300565b611520611fe9565b61152e600280546001019055565b6002548152602081018490526040810183905261014081018290523461016082015233606082015261155e6117aa565b60e082015261156b6117aa565b610100820152805160009081526006602090815260409091208251815590820151829190600182019061159e9082612673565b50604082015160028201906115b39082612673565b5060608201516003820180546001600160a01b0319166001600160a01b03928316179055608083015160048301805460a086015160c0870151939094166001600160a81b031990911617600160a01b931515939093029290921760ff60a81b1916600160a81b9115159190910217905560e082015160058201556101008201516006820155610120820151600782015561014082015160088201906116589082612673565b50610160919091015160099091015580516000908152600560205260409020805460ff191660011790558051339060008051602061275d8339815191529061169e6117aa565b604080519283526060602084018190526010908401526f145d595cdd1a5bdb8818dc99585d195960821b608084015282015260a001610b0c565b6116e0611e9e565b6001600160a01b0381166117455760405162461bcd60e51b815260206004820152602660248201527f4f776e61626c653a206e6577206f776e657220697320746865207a65726f206160448201526564647265737360d01b6064820152608401610300565b61174e81611ef8565b50565b6002600054036117a35760405162461bcd60e51b815260206004820152601f60248201527f5265656e7472616e637947756172643a207265656e7472616e742063616c6c006044820152606401610300565b6002600055565b60006117b8426103e8612586565b6117c4906103e8612733565b905090565b6000826001600160a01b03168260405160006040518083038185875af1925050503d8060008114611816576040519150601f19603f3d011682016040523d82523d6000602084013e61181b565b606091505b505090508061185d5760405162461bcd60e51b815260206004820152600e60248201526d14185e5b595b9d0819985a5b195960921b6044820152606401610300565b505050565b60606000805b6003548110156118c4576000848152600760205260408120859161188d846001612733565b815260200190815260200160002060010154036118b257816118ae816125d2565b9250505b806118bc816125d2565b915050611868565b508067ffffffffffffffff8111156118de576118de6121aa565b60405190808252806020026020018201604052801561191757816020015b611904611fa1565b8152602001906001900390816118fc5790505b5091506000805b600354811015611aa85760008581526007602052604081208691611943846001612733565b81526020019081526020016000206001015403611a9657600085815260076020526040812090611974836001612733565b81526020019081526020016000206040518060e001604052908160008201548152602001600182015481526020016002820180546119b1906125eb565b80601f01602080910402602001604051908101604052809291908181526020018280546119dd906125eb565b8015611a2a5780601f106119ff57610100808354040283529160200191611a2a565b820191906000526020600020905b815481529060010190602001808311611a0d57829003601f168201915b505050918352505060038201546001600160a01b0381166020830152600160a01b900460ff1615156040820152600482015460608201526005909101546080909101528483611a78816125d2565b945081518110611a8a57611a8a612746565b60200260200101819052505b80611aa0816125d2565b91505061191e565b505050919050565b60606000805b600354811015611b125760008481526007602052604081208591611adb846001612733565b81526020019081526020016000206001015403611b005781611afc816125d2565b9250505b80611b0a816125d2565b915050611ab6565b508067ffffffffffffffff811115611b2c57611b2c6121aa565b604051908082528060200260200182016040528015611b6557816020015b611b52611fa1565b815260200190600190039081611b4a5790505b5091506000805b600354811015611aa85760008581526007602052604081208691611b91846001612733565b81526020019081526020016000206001015403611e8c57600085815260066020526040902060040154600160a01b900460ff1615611d0957600085815260076020526040812090611be3836001612733565b81526020019081526020016000206040518060e00160405290816000820154815260200160018201548152602001600282018054611c20906125eb565b80601f0160208091040260200160405190810160405280929190818152602001828054611c4c906125eb565b8015611c995780601f10611c6e57610100808354040283529160200191611c99565b820191906000526020600020905b815481529060010190602001808311611c7c57829003601f168201915b505050918352505060038201546001600160a01b0381166020830152600160a01b900460ff1615156040820152600482015460608201526005909101546080909101528483611ce7816125d2565b945081518110611cf957611cf9612746565b6020026020010181905250611e8c565b600085815260076020526040812081611d23846001612733565b81526020019081526020016000206040518060e00160405290816000820154815260200160018201548152602001600282018054611d60906125eb565b80601f0160208091040260200160405190810160405280929190818152602001828054611d8c906125eb565b8015611dd95780601f10611dae57610100808354040283529160200191611dd9565b820191906000526020600020905b815481529060010190602001808311611dbc57829003601f168201915b505050918352505060038201546001600160a01b038116602080840191909152600160a01b90910460ff1615156040808401919091526004840154606084015260059093015460809092019190915281518083018352601c81527f48696464656e203e3e202a2a2a2a2a2a202a2a2a2a2a202a2a202a2a0000000091810191909152908201529050808584611e6d816125d2565b955081518110611e7f57611e7f612746565b6020026020010181905250505b80611e96816125d2565b915050611b6c565b6001546001600160a01b031633146106485760405162461bcd60e51b815260206004820181905260248201527f4f776e61626c653a2063616c6c6572206973206e6f7420746865206f776e65726044820152606401610300565b600180546001600160a01b038381166001600160a01b0319831681179093556040519116919082907f8be0079c531659141344cd1fd0a4f28419497f9722a3daafe3b4186f6b6457e090600090a35050565b805480611f995760405162461bcd60e51b815260206004820152601b60248201527f436f756e7465723a2064656372656d656e74206f766572666c6f7700000000006044820152606401610300565b600019019055565b6040518060e0016040528060008152602001600081526020016060815260200160006001600160a01b0316815260200160001515815260200160008152602001600081525090565b60405180610180016040528060008152602001606081526020016060815260200160006001600160a01b0316815260200160006001600160a01b0316815260200160001515815260200160001515815260200160008152602001600081526020016000815260200160608152602001600081525090565b6000806040838503121561207357600080fd5b50508035926020909101359150565b60006020828403121561209457600080fd5b5035919050565b6000815180845260005b818110156120c1576020818501810151868301820152016120a5565b506000602082860101526020601f19601f83011685010191505092915050565b80518252602081015160208301526000604082015160e0604085015261210a60e085018261209b565b6060848101516001600160a01b03169086015260808085015115159086015260a0848101519086015260c09384015193909401929092525090919050565b6000602080830181845280855180835260408601915060408160051b870101925083870160005b8281101561219d57603f1988860301845261218b8583516120e1565b9450928501929085019060010161216f565b5092979650505050505050565b634e487b7160e01b600052604160045260246000fd5b600082601f8301126121d157600080fd5b813567ffffffffffffffff808211156121ec576121ec6121aa565b604051601f8301601f19908116603f01168101908282118183101715612214576122146121aa565b8160405283815286602085880101111561222d57600080fd5b836020870160208301376000602085830101528094505050505092915050565b6000806040838503121561226057600080fd5b82359150602083013567ffffffffffffffff81111561227e57600080fd5b61228a858286016121c0565b9150509250929050565b600080600080608085870312156122aa57600080fd5b84359350602085013567ffffffffffffffff808211156122c957600080fd5b6122d5888389016121c0565b945060408701359150808211156122eb57600080fd5b6122f7888389016121c0565b9350606087013591508082111561230d57600080fd5b5061231a878288016121c0565b91505092959194509250565b60006101808251845260208301518160208601526123468286018261209b565b91505060408301518482036040860152612360828261209b565b915050606083015161237d60608601826001600160a01b03169052565b50608083015161239860808601826001600160a01b03169052565b5060a08301516123ac60a086018215159052565b5060c08301516123c060c086018215159052565b5060e083810151908501526101008084015190850152610120808401519085015261014080840151858303828701526123f9838261209b565b61016095860151969095019590955250919392505050565b6000602080830181845280855180835260408601915060408160051b870101925083870160005b8281101561219d57603f19888603018452612454858351612326565b94509285019290850190600101612438565b60208152600061247960208301846120e1565b9392505050565b6020815260006124796020830184612326565b6000806000606084860312156124a857600080fd5b833567ffffffffffffffff808211156124c057600080fd5b6124cc878388016121c0565b945060208601359150808211156124e257600080fd5b6124ee878388016121c0565b9350604086013591508082111561250457600080fd5b50612511868287016121c0565b9150509250925092565b60006020828403121561252d57600080fd5b81356001600160a01b038116811461247957600080fd5b602080825260129082015271145d595cdd1a5bdb881b9bdd08199bdd5b9960721b604082015260600190565b634e487b7160e01b600052601160045260246000fd5b80820281158282048414176105bd576105bd612570565b6000826125ba57634e487b7160e01b600052601260045260246000fd5b500490565b818103818111156105bd576105bd612570565b6000600182016125e4576125e4612570565b5060010190565b600181811c908216806125ff57607f821691505b60208210810361261f57634e487b7160e01b600052602260045260246000fd5b50919050565b601f82111561185d57600081815260208120601f850160051c8101602086101561264c5750805b601f850160051c820191505b8181101561266b57828155600101612658565b505050505050565b815167ffffffffffffffff81111561268d5761268d6121aa565b6126a18161269b84546125eb565b84612625565b602080601f8311600181146126d657600084156126be5750858301515b600019600386901b1c1916600185901b17855561266b565b600085815260208120601f198616915b82811015612705578886015182559484019460019091019084016126e6565b50858210156127235787850151600019600388901b60f8161c191681555b5050505050600190811b01905550565b808201808211156105bd576105bd612570565b634e487b7160e01b600052603260045260246000fdfeaee8e5d3bbb2f71a951b5632cee20f7ac487b9f8ab4f66a236f7694b13af7c6aa2646970667358221220961c685d64bb3fe822515ab4c83f94a358b60642fd6c845d503b4f4527d9c36464736f6c63430008110033",
  "linkReferences": {},
  "deployedLinkReferences": {}
}